{
  "contractName": "InfoContract",
  "abi": [
    {
      "anonymous": false,
      "inputs": [
        {
          "indexed": false,
          "internalType": "string",
          "name": "name",
          "type": "string"
        },
        {
          "indexed": false,
          "internalType": "uint256",
          "name": "age",
          "type": "uint256"
        }
      ],
      "name": "Instructor",
      "type": "event"
    },
    {
      "inputs": [
        {
          "internalType": "string",
          "name": "_name",
          "type": "string"
        },
        {
          "internalType": "uint256",
          "name": "_age",
          "type": "uint256"
        }
      ],
      "name": "setInfo",
      "outputs": [],
      "stateMutability": "nonpayable",
      "type": "function"
    },
    {
      "inputs": [],
      "name": "getInfo",
      "outputs": [
        {
          "internalType": "string",
          "name": "",
          "type": "string"
        },
        {
          "internalType": "uint256",
          "name": "",
          "type": "uint256"
        }
      ],
      "stateMutability": "view",
      "type": "function",
      "constant": true
    },
    {
      "inputs": [],
      "name": "setHi",
      "outputs": [
        {
          "internalType": "string",
          "name": "",
          "type": "string"
        }
      ],
      "stateMutability": "pure",
      "type": "function",
      "constant": true
    }
  ],
  "bytecode": "0x608060405234801561001057600080fd5b50610863806100206000396000f3fe608060405234801561001057600080fd5b50600436106100415760003560e01c80635a9b0b89146100465780638262963b146100655780639733baff14610081575b600080fd5b61004e61009f565b60405161005c929190610278565b60405180910390f35b61007f600480360381019061007a919061041d565b61013b565b005b610089610192565b6040516100969190610479565b60405180910390f35b60606000806001548180546100b3906104ca565b80601f01602080910402602001604051908101604052809291908181526020018280546100df906104ca565b801561012c5780601f106101015761010080835404028352916020019161012c565b820191906000526020600020905b81548152906001019060200180831161010f57829003601f168201915b50505050509150915091509091565b816000908161014a91906106a7565b50806001819055507f010becc10ca1475887c4ec429def1ccc2e9ea1713fe8b0d4e9a1d009042f6b8e60006001546040516101869291906107fd565b60405180910390a15050565b60606040518060400160405280600281526020017f4869000000000000000000000000000000000000000000000000000000000000815250905090565b600081519050919050565b600082825260208201905092915050565b60005b838110156102095780820151818401526020810190506101ee565b60008484015250505050565b6000601f19601f8301169050919050565b6000610231826101cf565b61023b81856101da565b935061024b8185602086016101eb565b61025481610215565b840191505092915050565b6000819050919050565b6102728161025f565b82525050565b600060408201905081810360008301526102928185610226565b90506102a16020830184610269565b9392505050565b6000604051905090565b600080fd5b600080fd5b600080fd5b600080fd5b7f4e487b7100000000000000000000000000000000000000000000000000000000600052604160045260246000fd5b6102fe82610215565b810181811067ffffffffffffffff8211171561031d5761031c6102c6565b5b80604052505050565b60006103306102a8565b905061033c82826102f5565b919050565b600067ffffffffffffffff82111561035c5761035b6102c6565b5b61036582610215565b9050602081019050919050565b82818337600083830152505050565b600061039461038f84610341565b610326565b9050828152602081018484840111156103b0576103af6102c1565b5b6103bb848285610372565b509392505050565b600082601f8301126103d8576103d76102bc565b5b81356103e8848260208601610381565b91505092915050565b6103fa8161025f565b811461040557600080fd5b50565b600081359050610417816103f1565b92915050565b60008060408385031215610434576104336102b2565b5b600083013567ffffffffffffffff811115610452576104516102b7565b5b61045e858286016103c3565b925050602061046f85828601610408565b9150509250929050565b600060208201905081810360008301526104938184610226565b905092915050565b7f4e487b7100000000000000000000000000000000000000000000000000000000600052602260045260246000fd5b600060028204905060018216806104e257607f821691505b6020821081036104f5576104f461049b565b5b50919050565b60008190508160005260206000209050919050565b60006020601f8301049050919050565b600082821b905092915050565b60006008830261055d7fffffffffffffffffffffffffffffffffffffffffffffffffffffffffffffffff82610520565b6105678683610520565b95508019841693508086168417925050509392505050565b6000819050919050565b60006105a461059f61059a8461025f565b61057f565b61025f565b9050919050565b6000819050919050565b6105be83610589565b6105d26105ca826105ab565b84845461052d565b825550505050565b600090565b6105e76105da565b6105f28184846105b5565b505050565b5b818110156106165761060b6000826105df565b6001810190506105f8565b5050565b601f82111561065b5761062c816104fb565b61063584610510565b81016020851015610644578190505b61065861065085610510565b8301826105f7565b50505b505050565b600082821c905092915050565b600061067e60001984600802610660565b1980831691505092915050565b6000610697838361066d565b9150826002028217905092915050565b6106b0826101cf565b67ffffffffffffffff8111156106c9576106c86102c6565b5b6106d382546104ca565b6106de82828561061a565b600060209050601f83116001811461071157600084156106ff578287015190505b610709858261068b565b865550610771565b601f19841661071f866104fb565b60005b8281101561074757848901518255600182019150602085019450602081019050610722565b868310156107645784890151610760601f89168261066d565b8355505b6001600288020188555050505b505050505050565b60008154610786816104ca565b61079081866101da565b945060018216600081146107ab57600181146107c1576107f4565b60ff1983168652811515602002860193506107f4565b6107ca856104fb565b60005b838110156107ec578154818901526001820191506020810190506107cd565b808801955050505b50505092915050565b600060408201905081810360008301526108178185610779565b90506108266020830184610269565b939250505056fea264697066735822122047ce721297cef252f2c9345f8d20ec3da1282402142265436ae660374d74a69764736f6c63430008100033",
  "immutableReferences": {},
  "source": "// SPDX-License-Identifier: MIT\npragma solidity >=0.4.22 <0.9.0;\n\ncontract InfoContract {\n    string name;\n    uint256 age;\n\n    event Instructor(string name, uint256 age);\n\n    function setInfo(string memory _name, uint256 _age) public {\n        name = _name;\n        age = _age;\n        emit Instructor(name, age);\n    }\n\n    function getInfo() public view returns (string memory, uint256) {\n        return (name, age);\n    }\n\n    function setHi() public pure returns (string memory) {\n        return \"Hi\";\n    }\n}\n",
  "sourcePath": "/Users/liuhao/Documents/fcc/fcc-contract/contracts/InfoContract.sol",
  "compiler": {
    "name": "solc",
    "version": "0.8.16+commit.07a7930e.Emscripten.clang"
  },
  "schemaVersion": "3.4.9",
  "updatedAt": "2022-08-19T01:05:27.712Z",
  "networkType": "ethereum",
  "devdoc": {
    "kind": "dev",
    "methods": {},
    "version": 1
  },
  "userdoc": {
    "kind": "user",
    "methods": {},
    "version": 1
  }
}